:020000040000fa
:080000000002040000000000f2
:020000040000fa
:04000800be03000033
:020000040000fa
:04000c00be0300002f
:020000040000fa
:04001000be0300002b
:020000040000fa
:04001400be03000027
:020000040000fa
:04001800be03000023
:020000040000fa
:04001c00be0300001f
:020000040000fa
:04002000be0300001b
:020000040000fa
:04002400be03000017
:020000040000fa
:040028002e030000a3
:020000040000fa
:04002c00be0300000f
:020000040000fa
:04003000be0300000b
:020000040000fa
:04003400880300003d
:020000040000fa
:04003800be03000003
:020000040000fa
:04003c00be030000ff
:020000040000fa
:04004000be030000fb
:020000040000fa
:04004400be030000f7
:020000040000fa
:04004800be030000f3
:020000040000fa
:04004c00be030000ef
:020000040000fa
:04005000be030000eb
:020000040000fa
:04005400be030000e7
:020000040000fa
:04005800be030000e3
:020000040000fa
:04005c00fe020000a0
:020000040000fa
:04006000be030000db
:020000040000fa
:04006400be030000d7
:020000040000fa
:04006800be030000d3
:020000040000fa
:04006c00be030000cf
:020000040000fa
:04007000be030000cb
:020000040000fa
:04007400be030000c7
:020000040000fa
:040078004c03000035
:020000040000fa
:04007c00be030000bf
:020000040000fa
:04008000be030000bb
:020000040000fa
:04008400be030000b7
:020000040000fa
:04008800be030000b3
:020000040000fa
:04008c00be030000af
:020000040000fa
:04009000be030000ab
:020000040000fa
:04009400be030000a7
:020000040000fa
:04009800be030000a3
:020000040000fa
:04009c006a030000f3
:020000040000fa
:0400a000be0300009b
:020000040000fa
:0400a400be03000097
:020000040000fa
:0400a800be03000093
:020000040000fa
:0400ac00be0300008f
:020000040000fa
:0400b000be0300008b
:020000040000fa
:0400b400be03000087
:020000040000fa
:0400b800be03000083
:020000040000fa
:0400bc00be0300007f
:020000040000fa
:0400c000be0300007b
:020000040000fa
:0400c400be03000077
:020000040000fa
:0400c800be03000073
:020000040000fa
:0400cc00be0300006f
:020000040000fa
:0400d000be0300006b
:020000040000fa
:0400d400be03000067
:020000040000fa
:0400d800be03000063
:020000040000fa
:0400dc00be0300005f
:020000040000fa
:0400e000be0300005b
:020000040000fa
:0400e400be03000057
:020000040000fa
:0400e800be03000053
:020000040000fa
:0400ec00be0300004f
:020000040000fa
:0400f000be0300004b
:020000040000fa
:0400f400be03000047
:020000040000fa
:0400f800be03000043
:020000040000fa
:0400fc00be0300003f
:020000040000fa
:04010000be0300003a
:020000040000fa
:04010400be03000036
:020000040000fa
:04010800be03000032
:020000040000fa
:04010c00be0300002e
:020000040000fa
:04011000be0300002a
:020000040000fa
:04011400be03000026
:020000040000fa
:04011800be03000022
:020000040000fa
:04011c00be0300001e
:020000040000fa
:04012000be0300001a
:020000040000fa
:04012400be03000016
:020000040000fa
:04012800be03000012
:020000040000fa
:04012c00be0300000e
:020000040000fa
:04013000be0300000a
:020000040000fa
:04013400be03000006
:020000040000fa
:04013800be03000002
:020000040000fa
:04013c00be030000fe
:020000040000fa
:04014000be030000fa
:020000040000fa
:04014400be030000f6
:020000040000fa
:04014800be030000f2
:020000040000fa
:04014c00be030000ee
:020000040000fa
:04015000be030000ea
:020000040000fa
:04015400be030000e6
:020000040000fa
:04015800be030000e2
:020000040000fa
:04015c00be030000de
:020000040000fa
:04016000be030000da
:020000040000fa
:04016400be030000d6
:020000040000fa
:04016800be030000d2
:020000040000fa
:04016c00be030000ce
:020000040000fa
:04017000be030000ca
:020000040000fa
:04017400be030000c6
:020000040000fa
:04017800be030000c2
:020000040000fa
:04017c00be030000be
:020000040000fa
:04018000be030000ba
:020000040000fa
:04018400be030000b6
:020000040000fa
:04018800be030000b2
:020000040000fa
:04018c00be030000ae
:020000040000fa
:04019000be030000aa
:020000040000fa
:04019400be030000a6
:020000040000fa
:04019800be030000a2
:020000040000fa
:04019c00be0300009e
:020000040000fa
:0401a000be0300009a
:020000040000fa
:0401a400be03000096
:020000040000fa
:0401a800be03000092
:020000040000fa
:0401ac00be0300008e
:020000040000fa
:0401b000be0300008a
:020000040000fa
:0401b400be03000086
:020000040000fa
:0401b800be03000082
:020000040000fa
:0401bc00be0300007e
:020000040000fa
:0401c000be0300007a
:020000040000fa
:0401c400be03000076
:020000040000fa
:0401c800be03000072
:020000040000fa
:0401cc00be0300006e
:020000040000fa
:0401d000be0300006a
:020000040000fa
:0401d400be03000066
:020000040000fa
:0401d800be03000062
:020000040000fa
:0401dc00be0300005e
:020000040000fa
:0401e000be0300005a
:020000040000fa
:0401e400be03000056
:020000040000fa
:0401e800be03000052
:020000040000fa
:0401ec00be0300004e
:020000040000fa
:0401f000be0300004a
:020000040000fa
:0401f400be03000046
:020000040000fa
:0401f800be03000042
:020000040000fa
:0401fc00be0300003e
:020000040000fa
:04020000be03000039
:020000040000fa
:04020400be03000035
:020000040000fa
:04020800be03000031
:020000040000fa
:04020c00be0300002d
:020000040000fa
:04021000be03000029
:020000040000fa
:04021400be03000025
:020000040000fa
:04021800be03000021
:020000040000fa
:04021c00be0300001d
:020000040000fa
:04022000be03000019
:020000040000fa
:04022400be03000015
:020000040000fa
:04022800be03000011
:020000040000fa
:04022c00be0300000d
:020000040000fa
:04023000be03000009
:020000040000fa
:04023400be03000005
:020000040000fa
:04023800be03000001
:020000040000fa
:04023c00be030000fd
:020000040000fa
:04024000be030000f9
:020000040000fa
:04024400be030000f5
:020000040000fa
:04024800be030000f1
:020000040000fa
:04024c00be030000ed
:020000040000fa
:04025000be030000e9
:020000040000fa
:04025400be030000e5
:020000040000fa
:04025800be030000e1
:020000040000fa
:04025c00be030000dd
:020000040000fa
:04026000be030000d9
:020000040000fa
:04026400be030000d5
:020000040000fa
:04026800be030000d1
:020000040000fa
:04026c00be030000cd
:020000040000fa
:04027000be030000c9
:020000040000fa
:04027400be030000c5
:020000040000fa
:04027800be030000c1
:020000040000fa
:04027c00be030000bd
:020000040000fa
:04028000be030000b9
:020000040000fa
:100400006f4821000eff27000e0188000000000049
:10041000000020000000e000020032000001200087
:100420002002880014000700d60007000000e0004a
:1004300003003a002055210001002000020037008f
:100440000000200001002000810f70000100320038
:100450000f000700000020000000e0000200320052
:100460000000020000000000840f020000000000f5
:100470000040da000000fe00200020000000e00044
:1004800002003200100020009001880000000600e9
:10049000a1028800800478000000eb001f003700f4
:1004a000e284440054a0b4009905ba00e2844400f8
:1004b00054a0b4009906ba00e284440054a0b400e9
:1004c0000006eb00476fde00fd07b200ae018800ba
:1004d000636ce10003003a000ad801000000eb0061
:1004e0000e003700606ce10008003a00004deb00a0
:1004f0000a05e800020039003420ec000af0a000f0
:100500008b05e900f9ff3e00040037006168e10057
:10051000010032000086eb000b00070019c7ba008b
:100520000e04e0001905ba0003003a000a00e000da
:10053000dbff3a0000000600fe07b200ae028800b2
:100540008a047800f5ff37000cd0a300e20f4d00bd
:100550001c00390089027800354dba000a05e80010
:10056000020039003420ec000af0a0008b05e900fd
:100570000f003200254dba000a05e80002003900dc
:100580003420ec000af0a0008b05e90008003200de
:100590000c00e0000600320015cdba000a05e800a4
:1005a000020039003420ec000af0a0008b05e900bd
:1005b0008984e80054a0b4000b00e000e2ff3a0098
:1005c000000006009902ba00055d78008b05e9007d
:1005d000f7ff3200c82ade00055d78008b05e900d0
:1005e000f3ff32000c00e000f1ff320019ddba0029
:1005f000eeff3700ce120400000000003600f800c5
:10060000809fbe00829fbe00849fbe00869fbe006a
:100610003200f8003400f80010002000a00188002b
:100620001000200090018800000000000000fa0087
:10063000fe08070001a8a9000080fa003400f900b4
:100640003200f9004f03be004f02be004f01be0052
:100650004f00be003600f900004006003600f800ea
:10066000809fbe00829fbe00849fbe00869fbe000a
:100670000000fa00b90807000008a9000080fa008d
:100680004f03be004f02be004f01be004f00be0030
:100690003600f900004006003600f800809fbe00da
:1006a000829fbe00849fbe00869fbe000000fa00ad
:1006b000ad0807000288a9000080fa004f03be00c1
:1006c0004f02be004f01be004f00be003600f900d1
:1006d000004006003600f800809fbe00829fbe00ea
:1006e000849fbe00869fbe000000fa00a30807009a
:1006f00003a8a9000080fa004f03be004f02be000d
:100700004f01be004f00be003600f9000040060059
:100710003600f800809fbe00829fbe00849fbe000e
:10072000869fbe000000fa00b08080000000e0005c
:1007300002003200b080800000000100504821001b
:10074000104078008040e8005048210001487800bf
:100750004048210011c0b300014878000068a9009a
:100760000080fa004f03be004f02be004f01be00e2
:100770004f00be003600f900004006000040da00dd
:080780000000fe00000005006e
:020000040000fa
:100788000800fa000040eb0020479800a00207008c
:100798000040eb00ef0707000000eb00000f7800b7
:1007a8000300370000c0eb00110807001e0fe80027
:1007b800f00420009e007800808f5000f9ff36007a
:1007c800890207000000eb00000f780010003700d6
:1007d800a1c4b3006011b8000040eb00300207006c
:1007e800de010700204798002e409000e14f50009e
:1007f8000c003200f07c20009e007800808f5000b2
:1008080002003a0000c1b300030137001e0fe800e0
:10081800f07c20009e007800808f5000ecff3600ae
:100828000100370000000000420207000004e00059
:1008380002003a0010c1b300f700370031c4b3001a
:10084800a21a20000300200080c0b3001402070091
:10085800c2010700204798002e409000e14f500049
:100868001d0032000000eb00000f78001500370073
:10087800300207000004e00002003a0010c1b30093
:10088800e5003700c1c7b3006011b80010c0b3005d
:1008980003020700b1010700204798002e4090008e
:1008a8000004e0009c003200f07c20009e007800ec
:1008b800808f500002003a0020c1b300d6003700f4
:1008c8001e0fe800f07c20009e007800808f50000a
:1008d800e7ff3600930037002e409000e14f5000ac
:1008e8008b003a00ba0107002007980031079800ea
:1008f8002e00900020479800ae409000a0cab30098
:1009080080cf50000200320030c1b300c20037006f
:100918002e019000be01900000f020000100200090
:100928000202780003017800800178000100780055
:1009380003026200000061008000eb00c000dd00df
:10094800000020000001be006120b8000001710015
:1009580081817100481add004810de000000720035
:10096800c818de00204798002e409000e14f500044
:100978000200320040c1b300a7003700ed010700b4
:100988000004e00002003a0010c1b300a2003700e2
:10099800e1c7b3006011b800a0c3b300c0010700ed
:1009a8006e010700204798002e409000e14f50004c
:1009b800020032002e4090009700370084010700a3
:1009c80020079800310798002e019000be01900082
:1009d80000002800f10f20000202780003017800cf
:1009e80080017800010078000302620000006100c5
:1009f8008000eb00c000dd00000020000001be0008
:100a08006120b80000017100818171000000280098
:100a1800f10f2000800f5100818f59000200320031
:100a280040c1b3007c003700c20107000004e000a9
:100a380002003a0010c1b3007700370011c4b300b8
:100a48001200200003002000b0c3b3009401070087
:100a580042010700204798002e409000e14f5000c7
:100a6800020032002e4090006b0037000000eb00bf
:100a7800000f780021003700ae0107000004e000f5
:100a880002003a0010c1b3006300370021c3b3006d
:100a98006011b80070c3b300810107002f0107007f
:100aa80020479800a30107000004e00002003a0074
:100ab80010c1b30058003700b1c3b30002002000d2
:100ac8000300240090c2b30075010700230107004a
:100ad800204798002e4090000004e00010003200eb
:100ae800f07c20009e007800808f500002003a00c1
:100af80020c1b300480037001e0fe800f07c20003a
:100b08009e007800808f5000dbff3600050037001c
:100b18002e40900040003700000000000100370020
:100b280000000000830107000004e00002003a0012
:100b380010c1b3003800370081c4b3006011b80099
:100b4800b0c3b3005601070004010700204798000e
:100b58002e4090000004e000020032002e40900079
:100b68002d003700730107000004e00002003a007e
:100b780010c1b30028003700a1c0b3000220200034
:100b88000300200000c1b30045010700f30007007f
:100b9800204798002e4090000004e0000200320038
:100ba8002e4090001c003700620107000004e0009e
:100bb80002003a0010c1b30017003700e1c7b300c4
:100bc8006011b800a0c3b30035010700e3000700b7
:100bd800204798002e4090000004e00002003200f8
:100be8002e4090000c003700f900070020079800fd
:100bf800310798002e009000be0090004e08de00dd
:100c08000040780014f0b7008101070010c0b3005d
:100c1800d0060700a0cab3000080fa000000060052
:100c28000400fa00204798002e4090000004e000dd
:100c380002003a0010c0b300204798000040eb00c3
:100c4800004f78000b003700cdfe070010479800d2
:100c58009e409000a0cab30080cf50000a00320026
:100c68006b01070000a8210061002000b3070700fe
:100c78001e4fe8002e4090009e40780080cf500024
:100c8800f1ff390001003700000000001e4090000d
:100c98000080fa00000006000800fa00881f7800ab
:100ca80020079800310798000000eb00000f78003b
:100cb8000d00370000c0eb00cd0607002047980064
:100cc8002e409000e24f40000c003200f07c2000e3
:100cd8009e007800808f500002003a0050c1b30097
:100ce8001b0037001e0fe800f07c20009e007800f3
:100cf800808f5000efff3600010037000000000031
:100d08000000eb00000f7800060037002e0090006e
:100d18001e04400000c0eb00b5060700004c780038
:100d28001e0fe8003e0090009e007800808f500063
:100d3800f6ff390000c0eb00ad0607002047980019
:100d480000c0eb00aa060700204798000040eb000f
:100d58004f0478000080fa00000006000800fa003e
:100d68001007980022079800330798001e01070013
:100d780014d0bf00e24f500008003a002e01900046
:100d8800be0190004918dd00c710de008100700028
:100d98004910dd002007980031079800e50007009a
:100da8000004e00002003a0010c1b300120037004e
:100db80080c0eb002e019000be01900010c1b3006e
:100dc800b700070065000700004f78001e40780054
:100dd8000004e000020032001e40780006003700e0
:100de800012020001e009000abff0700004f780094
:100df800070107001e4078000080fa000000060086
:100e08000a00fa0020079800320798004307980064
:100e1800f500070014d0bf00e24f500008003a0068
:100e28003e019000ce0190004918dd00c710de0099
:100e3800810070004910dd003007980041079800d4
:100e4800bc0007000004e00002003a0010c1b30033
:100e58004000370080c0eb003e019000ce019000ba
:100e680080c1b3008e0007003c00070020479800af
:100e78002e4090000004e000020032002e40900056
:100e880034003700e0cfb300590607002047980028
:100e98000000eb00000f7800060037002e009000dd
:100ea8001e004000104078005106070020479800b7
:100eb8001e0fe800f01f20009e007800808f500071
:100ec800f6ff360000c0eb004906070020479800ef
:100ed80000c0eb00460607002047980000c0eb0062
:100ee80043060700204798002e4090000080fb0032
:100ef8006e0060000080d100204798008d00070038
:100f08000004e00002003a0010c1b30011003700ed
:100f1800bf0007002e409000e24f500002003a0048
:100f280060c1b3000b0037002e409000e54f500021
:100f380002003a0070c1b300060037002e4090004e
:100f4800e64f500002003a0080c1b30001003700ac
:100f5800a0c0b3000080fa00000006000200fa00fa
:100f680000c0eb0022060700004f780000c0eb002d
:100f78001f060700004f78001e4078000080fa0026
:100f8800000006000400fa0000c0eb001806070085
:100f9800004f780000c0eb00150607000080fb003a
:100fa8001007980000c0eb0011060700004f7800fa
:100fb8001e009000c800dd001e80fb0001007000cc
:100fc800100798001e0090000080fa00000006003c
:100fd8000600fa0000c0eb00050607000080fb00d1
:100fe8008000eb00008fbe0000c0eb000006070089
:100ff800404798001e0078009e0090004809dd00d8
:10100800c801de00830171004801dd004e409000f8
:101018000080fb008000eb00001f71000197710049
:1010280000c0eb00f2050700404798001e0078005a
:101038009e0090004809dd00c801de0083017100b0
:101048004801dd004e4090000080fb008000eb006e
:10105800001f71000197710000c0eb00e405070054
:10106800404798001e0078009e0090004809dd0067
:10107800c801de00830171004801dd004e40900088
:101088000080fb008000eb00001f710001977100d9
:101098001e0078009e0090000080fa000000060004
:1010a8000800fa00004f78001207980023079800fc
:1010b800614798001e64a0001e407800cc05070018
:1010c8001e009000ae0090004808de000040780046
:1010d800c70507001e009000ae0090004008de0023
:1010e80000407800c20507001e009000ae00900086
:1010f8004809dd004800de0000007100c808de0075
:1011080000407800ba0507001e00900000407800f3
:10111800b70507006e4090000080fb00000040000b
:10112800004078000004a000b10507000080fa0024
:10113800000006000400fa000000eb00000f780031
:101148000d00370000c0eb00a905070020479800f4
:101158002e409000e14f40000c003200f07c20004f
:101168009e007800808f500002003a000040eb009b
:10117800080037001e0fe800f07c20009e00780071
:10118800808f5000efff360001003700000000009c
:101198002e4090000080fa00000006000000fa00cf
:1011a8001100070000fa2000010020006306070074
:1011b8001700070000fa2000010020005f06070062
:1011c8009070800061006000004078000004e0003a
:1011d80002003200e0cdb300010037000040eb0010
:1011e8000080fa00000006000000fa00807080000d
:1011f8000000a10080708800a07080000000a1009d
:10120800a0708800000000000080fa0000000600be
:101218000000fa00807080000000a0008070880044
:10122800000000000080fa00000006000000fa003c
:10123800207080000010a000207088000080fa0054
:10124800000006000000fa00207080000010a100d5
:10125800207088000080fa00000006000000fa00f4
:1012680011aea90015aea80010aea90014aea900d1
:1012780000902000d1032000300607000080fa000b
:10128800000006000200fa00004f780015aea90021
:101298001e4078005605070015aea8000080fa0029
:1012a800000006000400fa002047980015aea900c7
:1012b8002e4090004e0507000040eb004c0507004b
:1012c800004f780015aea8001e4078000080fa0094
:1012d800000006000800fa0020479800210798003f
:1012e8006247980015aea9002e4090000054a00057
:1012f8003f0507000040eb00004f7800060037006c
:101308001e80fb00ae009000008040001040780076
:10131800370507001e4fe8006e4090009e40780099
:1013280080cf5000f6ff390015aea8000080fa0003
:10133800000006001000fa005007980061079800a6
:10134800624f9800530107000e0078008040eb00c0
:10135800014878001e4078000004a000004f780083
:101368000e00780012c0b3008000780010c0b300ef
:10137800d8ff07000e00e8008040eb000148780025
:101388001e4090000004a000104798000e00e800de
:1013980012c0b3008000780020c0b300cdff070062
:1013a8000e80e8008040eb00014878002e40900055
:1013b8003040b300204798000e80e80012c0b30008
:1013c8008000780030c0b300c2ff07006300470008
:1013d8008040eb0001487800be40900000cfb30089
:1013e80000c060000014a000304798003e40900004
:1013f8006f4060000044a000304798006300470039
:1014080012c0b3008000780040c0b300b1ff0700ed
:10141800640047008040eb00014878006e48900067
:101428000074a1000074a1004e41900001c8b300ef
:101438008140610000c07000404798006400470088
:1014480012c0b3008000780050c0b300a1ff0700ad
:10145800650047008040eb00014878005e4090003e
:101468006040b300504798005e4090000034a000f0
:10147800504798006500470012c0b300800078000c
:1014880060c0b30093ff070052c0b300ee009000a5
:10149800a0c0b3008fff070052c0b300de00900069
:1014a80000c1b3008bff0700660047008040eb00d7
:1014b80001487800ee40900000ccb30000c0600006
:1014c8000034a000604798006600470012c0b300cf
:1014d8008000780010c1b3007eff07006700470056
:1014e8008040eb00014878007e4090000064a00036
:1014f800704798007e4090000054a0007047980004
:101508007e4090000044a0007047980067004700a4
:1015180012c0b3008000780070c0b3006dff0700f0
:1015280020ceb30057ff070010ceb30055ff0700c9
:10153800680047008040eb00014878000e489000a2
:101548000014a000004f98000e4890000004a0006e
:10155800004f98000e4890000024a000004f98000b
:101568000e4890000034a000004f98006800470023
:1015780012c0b300800078000040eb0055ff070060
:1015880000d42000310020006c05070014aea8002c
:101598000080fa00000006000600fa001007980014
:1015a8004147980014aea90000f421000100200072
:1015b800620507000040eb00004f780010c0b30040
:1015c800004f78008e00070015aea90000cab300ce
:1015d800870407000040eb00004f78000600370042
:1015e8001e80fb009e0090000080400010407800a4
:1015f8007f0407001e4fe8004e4090009e40780090
:1016080080cf5000f6ff390015aea8000e00e800a4
:101618008040eb00014878001e4090000004a100c3
:10162800104798001e4090000014a0001047980032
:101638001e4090000024a000104798001e40900013
:101648000034a000104798000e00e80012c0b30054
:10165800800078000040eb001eff070014aea800d1
:1016680000192000010020003405070014aea9006d
:101678000080fa00000006000200fa0014aea9007b
:101688000e0078008040eb00014878001e4078008a
:101698000004a000004f78001e4078000014a0004d
:1016a800004f78001e4078000024a000004f78000a
:1016b8001e4078000034a000004f78000e0078002b
:1016c80012c0b300800078000040eb0001ff070063
:1016d80014aea800004521000100200017050700ee
:1016e8000080fa00000006000200fa00881f780057
:1016f8000004780015aea90070c0b3003c040700d0
:101708000040eb003a040700004f780015aea8002f
:101718000e007800104c7800080078004f0478001c
:101728000080fa00000006000600fa001007980082
:101738004147980015aea90010c6b3002c04070055
:101748000040eb00004f7800080037000040eb0035
:10175800270407009e009000804878001e00900033
:101768000000e800100798001e4fe8004e40900067
:101778009e40780080cf5000f4ff390015aea800d5
:1017880020ceb300bffe07000080fa00000006006c
:101798000200fa000040eb00004f78000e00e8005d
:1017a800d1ff07001e4090000044b2000004e00092
:1017b8000300320010c0b300004f78000d0037005e
:1017c8001e4090000042b2000004e0000300320016
:1017d80020c0b300004f7800060037001e4090007c
:1017e800704060000004e0000200320030c0b30026
:1017f800004f78001e4078000080fa0000000600c4
:101808000400fa000e80e800b7ff0700ae40900021
:10181800014f78001e4078000042b2000004e0004a
:101828000300320010ceb30096fe07000600370012
:101838001e407800704060000004e00002003200a2
:1018480010ceb3008ffe07000e0078008040eb003a
:10185800014878001e4078000064a000004f78001e
:101868001e4078000054a000004f78001e40780009
:101878000044a000004f78000e00780012c0b300aa
:101888008000780070c0b30092fe07000080fa0064
:10189800000006000200fa0014aea90000f42100be
:1018a80001002000a50407000e0078008040eb002e
:1018b800014878001e4078000014a100004f78000d
:1018c8001e4078000024a000004f78001e407800d9
:1018d8000034a000004f78000e00780012c0b3005a
:1018e800800078000040eb007afe070000f4210039
:1018f80001002000910407000080fa0000000600a3
:101908000200fa000e0078008040eb0001487800e1
:101918001e4078000024a100004f78001e40780087
:101928000064a000004f78001e4078000034a10039
:10193800004f78001e4078000034a100004f780066
:1019480012cea900e0c8b300fa0307000e00780021
:1019580010407800f703070012cea8000080fa00b4
:10196800000006000200fa00000f780012cea9005d
:101978000040eb00ef0307000040eb00ed03070019
:101988009e007800804878000040eb00e9030700db
:101998009e007800904098000040eb00e5030700a7
:1019a8009e007800a04098000040eb00e10307008b
:1019b8009e007800b04098000040eb00dd0307006f
:1019c8009e007800c04098000040eb00d903070053
:1019d8009e007800d04098000040eb00d503070037
:1019e8009e007800e040980012cea8001e00780003
:1019f800104078000080fb004400de0000407800c2
:101a0800ea00b900804078001e0078001040780095
:101a18006f40600080c040001e00780001487800d8
:101a28001e007800104090000080fb004400de009b
:101a380000407800ea00b900804078001e00780075
:101a4800104090006f40600080c040001e00780089
:101a5800114098001e007800204090000080fb0094
:101a68004400de0000407800ea00b90080407800b9
:101a78001e007800204090006f40600080c0400049
:101a88001e007800214098001e0078003040900029
:101a98000080fb004400de0000407800ea00b90046
:101aa800804078001e007800304090006f40600051
:101ab80080c040001e007800314098001e00780069
:101ac800404090000080fb004400de0000407800a9
:101ad800ea00b900804078001e007800404090007d
:101ae8006f40600080c040001e00780041409800b0
:101af8001e007800504090000080fb004400de008b
:101b080000407800ea00b900804078001e007800a4
:101b1800504090006f40600080c040001e00780078
:101b2800514098001e007800604090000080fb0043
:101b38004400de0000407800ea00b90080407800e8
:101b48001e007800604090006f40600080c0400038
:101b58001e007800614098000080fa00000006002e
:101b68000200fa00000f780012cea9000040eb0036
:101b7800700307000040eb006e0307009e0078002a
:101b8800804878000040eb006a0307009e00780058
:101b9800904098000040eb00660307009e00780024
:101ba800a040980012cea8001e00780010407800cf
:101bb8000080fb004400de0000407800ea00b90025
:101bc800804078001e007800104078006f40600068
:101bd80080c040001e007800014878001e00780090
:101be800104090000080fb004400de0000407800b8
:101bf800ea00b900804078001e007800104090008c
:101c08006f40600080c040001e00780011409800be
:101c18001e007800204090000080fb004400de0099
:101c280000407800ea00b900804078001e00780083
:101c3800204090006f40600080c040001e00780087
:101c4800214098000080fa00000006000800fa0011
:101c5800000f7800110798002207980033079800b2
:101c68001e4078000081fb00d0cc2c000010b8008a
:101c78004308de00ea00b900000051000040780087
:101c8800004178001e4078008080fb00d0cc2c00fa
:101c98000008b8004308de00004078000080fb0020
:101ca8004400dd000040780000407100004f7800db
:101cb8001e4090000081fb00d0cc2c000010b80022
:101cc8004308de00ea00b900000051000040780037
:101cd800004178001e4090008080fb00d0cc2c0092
:101ce8000008b8004308de00004078000080fb00d0
:101cf8004400dd0000407800004071001047980063
:101d08002e4090000081fb00d0cc2c000010b800c1
:101d18004308de00ea00b9000000510000407800e6
:101d2800004178002e4090008080fb00d0cc2c0031
:101d38000008b8004308de00004078000080fb007f
:101d48004400dd0000407800004071002047980002
:101d58003e4090000081fb00d0cc2c000010b80061
:101d68004308de00ea00b900000051000040780096
:101d7800004178003e4090008080fb00d0cc2c00d1
:101d88000008b8004308de00004078000080fb002f
:101d98004400dd00004078000040710030479800a2
:101da8004e4090000081fb00d0cc2c000010b80001
:101db8004308de00ea00b900000051000040780046
:101dc800004178004e4090008080fb00d0cc2c0071
:101dd8000008b8004308de00004078000080fb00df
:101de8004400dd0000407800004071004047980042
:101df8005e4090000081fb00d0cc2c000010b800a1
:101e08004308de00ea00b9000000510000407800f5
:101e1800004178005e4090008080fb00d0cc2c0010
:101e28000008b8004308de00004078000080fb008e
:101e38004400dd00004078000040710050479800e1
:101e48006e4090000081fb00d0cc2c000010b80040
:101e58004308de00ea00b9000000510000407800a5
:101e6800004178006e4090008080fb00d0cc2c00b0
:101e78000008b8004308de00004078000080fb003e
:101e88004400dd0000407800004071006047980081
:101e980012cea90000c8b300a60207001e407800b1
:101ea800a40207001e409000a20207002e409000e6
:101eb800a00207003e4090009e0207004e4090009e
:101ec8009c0207005e4090009a0207006e40900056
:101ed8009802070012cea8000080fa000000060051
:101ee8000000fa002023a8000080fa000000060085
:101ef8000000fa002023a9000080fa000000060074
:101f08000000fa008a000700fe02070000682900a6
:101f1800810920000903070062c1b3008141210043
:101f2800d041210003fd070090a18000a1a18000fd
:101f3800b2a18000c3a1800044ff07002070800088
:101f48000000d100614060000004a2006140600010
:101f58000080fb00610060000000400021708000ec
:101f68000110a1000100700020708800006829009d
:101f780081092000f102070003d0bf000080fb00a8
:101f8800e20f50002e003200e30f500060003200d4
:101f9800e10f500001003200640037000370ef00c9
:101fa80007d0bf00e14f500003003a000770ef0070
:101fb800b1fd070021003700204221009040780041
:101fc80020432100014878003042210090407800e9
:101fd80030432100014878004042210090407800b9
:101fe8004043210001487800504221009040780089
:101ff8005043210001487800604221009040780059
:102008007043210001487800704221009040780018
:102018006043210001487800804221009040780008
:10202800804321000148780090a18000a1a1800090
:10203800b2a18000c3a1800004ff07003b00370065
:102048000045210001002000bc020700a4ff070092
:10205800a7ff0700a0432100c1fe0700a0422100fe
:1020680081c4b30001487800a04321009040780063
:10207800b042210001487800b04321009040780028
:10208800c042210001487800c043210090407800f8
:10209800d04221000148780006d0bf000004e000cb
:1020a8000b0032006080800080407800e042210010
:1020b80001487800608080004800de008040780099
:1020c800f0422100014878000670ef000600370052
:1020d800e042210081c4b30001487800f0422100a9
:1020e80081c4b300014878000043210081c4b300d3
:1020f800014878001043210081c4b30001487800ea
:1021080081c0b300a042210023fd0700070037006b
:1021180000c42900010020008802070081c0b30024
:10212800a04221001cfd07000000000083ff3700cb
:102138000000fa000270ef000470ef0010c0b30056
:1021480003f0b70010c0b30007f0b7000570ef0048
:10215800808b280001002000408088005180880082
:102168000170ef000670ef00204321008040eb0073
:10217800014878001030ef000d00370080808000a3
:10218800814121000080400081c7b30001487800e8
:1021980080808000d14121000080400081c7b300c9
:1021a80001487800808080000000e8008080880076
:1021b80080808000e40f5000f0ff36001030ef0000
:1021c8000d003700808080002142210000804000ff
:1021d8008040eb000148780080808000a142210007
:1021e80000804000a1c0b3000148780080808000d2
:1021f8000000e8008080880080808000ff0f500089
:10220800f0ff36001030ef000800370080808000b3
:102218008101210000804000a1c5b3000148780079
:10222800808080000000e800808088008180800035
:10223800f01f2000808f5000f4ff36000080fa0065
:10224800000006000000fa0021c5b300f0c2b30088
:102258001d00070000a821006100200037020700c8
:1022680031c0b300d0c2b3001700070011c4b300d7
:10227800c0c2b300140007008040eb00b0c2b30036
:102288001100070041c0b30080c2b3000e00070070
:1022980021c0b300a0c2b3000b00070051c1b300b6
:1022a80050c0b3000800070051c1b30090c2b3008a
:1022b8000500070000902000d10320001f0207003e
:1022c8000080fa00000006000200fa00004f7800c3
:1022d800114798001e00fb0000004000004f7800e6
:1022e800142ea9001e407800410107001e409000ee
:1022f8003f010700142ea8000080fa000000060025
:102308000400fa00204798000040eb00004f7800d6
:102318002e4090000080fb00000040000040780044
:102328000004a00020479800142ea9002e40900019
:102338002f010700004f78000040eb002c01070038
:10234800004f7800142ea8001e4078000080fa0084
:10235800000006001200fa00142ea90030c2b300d3
:10236800230107000000eb00000f7800070037008a
:102378000040eb001e010700804078001e01780035
:1023880068004100017778001e0fe8001e00780001
:10239800e80f5000f6ff3400142ea800800c20002f
:1023a80001002000e50107000000eb00100798007d
:1023b8002f0037001e0090000000e00003003a00e4
:1023c8002000200020079800030037002e0090000e
:1023d80063004000200798002e009000680040002d
:1023e800ee407800614798006e40900062406000bf
:1023f800704798007e4090000004e00013003a0007
:102408001e009000e300b900680040006e407800ac
:102418000000fb00c800dd001e009000e300b900ca
:102428000000e800680040006e4078000000fb00f3
:10243800810070001e00900000014000e043210070
:102448000000410001087800060037001e009000d7
:1024580080004000e0432100008040008000eb0045
:10246800010878001e0090000000e800100798009e
:102478001e009000e20f5000ceff34000080fa00ea
:10248800000006000200fa00142ea90030c2b300b2
:10249800d70007000000eb00000f780007003700a6
:1024a8000040eb00d2000700804078004044210043
:1024b8001e004000014878001e0fe800e0032000dd
:1024c8009e007800808f5000f5ff3400142ea8007d
:1024d800800c200001002000980107000080fa000d
:1024e800000006000000fa000021ef00701a260024
:1024f800100888000001280020088800b0808000ab
:102508000000e00002003a00e02c2100240007004f
:102518000068a9002068a800404821008040eb001e
:10252800014878000080fa00000006000200fa0066
:10253800000f78009e0078001108880040482100ac
:102548008040eb00014878000080fa000000060097
:102558000000fa00100880000080fa000000060061
:102568000200fa00000f78009e0078000108880039
:10257800404821008040eb00014878000080fa00c4
:10258800000006000000fa00000880000080fa0041
:10259800000006000000fa000080fa0000000600b3
:1025a8000200fa00000f78002068a9009e00780059
:1025b800b18088002068a8000080fa0000000600aa
:1025c8000000fa00404821008040eb0001487800f4
:1025d8002068a80005e1a8000080fa0000000600b5
:1025e8000000fa0005e1a9002068a9000080fa00af
:1025f800000006000200fa0040482100104f780051
:102608001e4078000004e00003003200404821002a
:102618008040eb00014878001e4078000080fa00f6
:10262800000006000000fa00504821001040780021
:102638000080fb000080fa00000006000000fa009d
:10264800504821008040eb00014878000080fa00e3
:10265800000006000000fa001000200070708800da
:102668001e2eef00042eef0030042000a07088001a
:10267800d00120000070880080212100807088002f
:102688000c2eef001c2eef000a2eef001a2eef0082
:10269800062eef00162eef00113a8000f00b2000f6
:1026a8000081600060042000710520002374200070
:1026b8008049780081497800824978000135800096
:1026c800f00f2800808060000040220001007000a8
:1026d800003588001135800000f82f000080600068
:1026e8004001b300103588004134800000fc2f0001
:1026f800008060009000b3004034880041348000be
:10270800f00f2c000080600000b0a000403488006a
:102718006136800000f82f0080806000c002200031
:102728000100700060368800103a800000017800cf
:102738000260a000600420007105200023742000be
:102748008049780081497800824978000080fa0041
:10275800000006000200fa00004f780041e2a900dc
:102768001e407800e14f500003003a00a0132000fb
:102778001012880002003700801320001012880011
:102788004422ef0000002800001288000080fa00b0
:10279800000006000400fa00000f780011079800f6
:1027a8000000000000128000620060000000e000ed
:1027b800fcff3a001e007800104078000080fb0003
:1027c80040128800000000000012800061006000d4
:1027d8000000e000fcff32004012800080407800da
:1027e8001e009000014878000080fa0000000600f2
:1027f8000400fa00204798000e80e8008e00780058
:10280800e4ff07001e4078000080fa000000060080
:102818000000fa00e0002000303a8800213a8000e9
:10282800f0f32f0000806000203a8800213a8000f1
:1028380000fe2f0000806000203a8800320020004f
:1028480080072000a1092000337420008049780007
:102858008149780082497800103a800012002000ef
:10286800600420007105200023742000804978004e
:10287800814978008249780000000000113a800000
:10288800000027008080600000002300808f500037
:10289800faff3a0000000000113a80000002200010
:1028a800008060000000e000fbff32000080fa00ba
:1028b800000006000000fa0061e2a90020232000c1
:1028c800101388006422ef006022ef0061e2a80084
:1028d8000080fa00000006000400fa00000f7800eb
:1028e80011079800000000000013800062006000db
:1028f8000000e000fcff3a001e007800104078005d
:102908000080fb00401388000000000000138000d6
:10291800610060000000e000fcff3200401380000e
:10292800804078001e009000014878000080fa007e
:10293800000006000400fa00204798000e80e80016
:102948008e007800e4ff07001e4078000080fa003f
:10295800000006000000fa000080fa0000000600ef
:102968000000fa0010c0b30002f0b7000080fa00bf
:10297800000006000000fa0085fb070003f0b7001e
:1029880003d0bf00e14f500005003a0081c0b300fa
:102998002042210064fb070099fb07000100370073
:1029a80097fb07000080fa00000006000000fa000c
:1029b8000008a900c208a9002008a9000288a900e7
:1029c800c228a9002288a80003a8a900c248a80014
:1029d80023a8a8000080fa00000006000000fa0002
:1029e80000402800001988002223ef004000200042
:1029f800201988002823ef002e23ef003023ef0052
:102a08003223ef002623ef00101980004200de0079
:102a18007f40600012f0b70021a8a8000080fa00eb
:102a2800000006000000fa0010c0b30006f0b7006e
:102a380000188000608088000080fa00000006000e
:102a48000000fa0001428000f0ff280000806000ca
:102a580000c0a000004288005142800080ff2f0083
:102a6800008060003000b30050428800714280004e
:102a7800f0f82f00008060000050a000704288002d
:102a880031428000f0f82f00008060000060a00054
:0c2a9800304288000080fa0000000600b8
:020000040000fa
:102aa4001210000002000000800000003e1400002c
:102ab40046000000800000001810000026040000fa
:102ac40080000000001000001200000080000000e0
:102ad40014100000020000008000000084140000b4
:102ae4000200000080000000161000000200000038
:082af40080000000000000005a
:020000040000fa
:102afc000000fa00c3e8a8000080fa0000000600fd
:102b0c000000fa0041ff0700d1fe070010c0b3001f
:102b1c000fff070066ff0700c8ff0700a2ff0700b2
:102b2c00adff0700f2ff070074fb0700caf90700ae
:082b3c000080fa000000060011
:020000040000fa
:102b4400f03fb1000180b10006003500ee0309003a
:102b540000000000403fb1000180b100fbff3d00d8
:102b64001000b000203fb0000200350000800900d2
:082b7400000000000000060053
:020000040000fa
:020000040005f5
:045fe000cfff0000ef
:020000040000fa
:020000040005f5
:045fe400ffff0000bb
:020000040000fa
:020000040005f5
:045fe8007fff000037
:020000040000fa
:020000040005f5
:045fec005eff000054
:020000040000fa
:020000040005f5
:045ff00038ff000076
:020000040000fa
:020000040005f5
:045ff400ffff0000ab
:00000001FF
